:020000040800F2
:10000000500700202D0400083504000837040008BC
:10001000390400083B0400083D040008000000000B
:100020000000000000000000000000003F04000885
:1000300041040008000000004304000845040008D3
:100040004704000847040008470400084704000864
:100050004704000847040008470400084704000854
:1000600047040008470400089307000847040008F5
:100070004704000847040008470400084704000834
:100080004704000847040008470400084704000824
:10009000470400084704000847040008490700080F
:1000A0004704000847040008470400084704000804
:1000B000A10A000847040008470400084704000894
:1000C00047040008470400084704000847040008E4
:1000D00047040008DB08000847040008470400083C
:1000E0007B0700084704000847040008470400088D
:1000F00047040008470400084704000847040008B4
:1001000047040008470400084704000847040008A3
:100110004704000847040008470400084704000893
:100120004704000847040008470400084704000883
:1001300000F002F800F042F80AA090E8000C8244B7
:100140008344AAF10107DA4501D100F037F8AFF294
:10015000090EBAE80F0013F0010F18BFFB1A43F0A5
:1001600001031847E4FE000004FF0000103A24BF1A
:1001700078C878C1FAD8520724BF30C830C144BF0C
:1001800004680C607047000000230024002500264E
:10019000103A28BF78C1FBD8520728BF30C148BFEA
:1001A0000B607047782905F06980632905F0B481F8
:1001B000002070471FB51FBD10B510BD05F038FAFF
:1001C0001146FFF7F7FF00F009F805F056FA03B4FF
:1001D000FFF7F2FF03BC00F0F1FA00008EB004203C
:1001E00000F030FC022000F09BFB482000F0ACF94E
:1001F00000F042F900F024FA4FF4614000F0EBFA0D
:1002000000F041FE01F086FB85480A210B4643229F
:10021000CDE90010642107A801F059FA07A801F000
:1002200064FA0120ADF82400ADF826007D483221A3
:100230000B463822CDE90010642102A801F047FAEC
:1002400002A801F052FA0120ADF81000ADF812003A
:10025000002000F004FE00200D900C90DFE00CA9BF
:100260000DA801F0C0FBBDF93400062190FBF1F2AE
:1002700001FB1200ADF82400BDF9300090FBF1F253
:1002800001FB1200ADF82600BDF93400C11700EBE8
:1002900091718910A0EB8101ADF81010BDF930000B
:1002A000C11700EB91718910A0EB8101ADF812101C
:1002B000BDF93400002803DD042000F00EF902E04F
:1002C000042000F0D3F8BDF93000002803DD012040
:1002D00000F003F902E0012000F0C8F802208DF8D8
:1002E000280007A801F001FABDF82000BDF924108C
:1002F0000844052802DA0020ADF82400BDF82000EB
:10030000BDF81C100844BDF924100144464800887B
:10031000401F814202DD0020ADF82400BDF822001C
:10032000BDF926100844052802DA0020ADF82600A1
:10033000BDF82200BDF81E100844BDF92610014486
:1003400039484088401F814202DD0020ADF8260078
:10035000BDF82000BDF82410084480B2ADF820009C
:10036000BDF82200BDF82610084480B2ADF8220086
:1003700001208DF8280007A801F0B7F902208DF8B8
:10038000140002A801F0B1F9BDF80C00BDF910107D
:100390000844052802DA0020ADF81000BDF80C0072
:1003A000BDF808100844BDF9101001441E4800882B
:1003B000401F814202DD0020ADF81000BDF80E00A4
:1003C000BDF912100844052802DA0020ADF8120029
:1003D000BDF80E00BDF80A100844BDF91210014422
:1003E00011484088401F814202DD0020ADF8120014
:1003F000BDF80C00BDF81010084480B2ADF80C0038
:10040000BDF80E00BDF81210084480B2ADF80E0021
:1004100001208DF8140002A801F067F900BF1EE763
:10042000149F00086CD30008900000200948804702
:1004300009480047FEE7FEE7FEE7FEE7FEE7FEE7C6
:10044000FEE7FEE7FEE7FEE704480549054A064BDE
:10045000704700005D500008310100085001002085
:100460005007002050030020500300203349C96882
:100470000143324AD160704700B53148806940F08D
:1004800010002F4988610846806940F480708861B7
:100490002A4800686FF30F00284908600846006882
:1004A00043F233310843254908600720FFF7DEFF98
:1004B0002448406820F07F60224948600846406830
:1004C00040F04C704860084640680020486008468C
:1004D000406840F04C70486000BD1849C9688143CD
:1004E000164AD16070471748C06840F480401549EB
:1004F000C86070471348C06820F480401149C86044
:1005000070470E48C06840F008000C49C86070474A
:100510000A48C06820F008000849C86070470948C8
:10052000C06840F400500749C86070470548C0687B
:1005300020F400500349C8607047000000100140DB
:10054000001002400020014000214FF0E022116124
:10055000C21700EB5272D210364B1A601946096866
:100560004FF47A725143344A116070470146314A60
:1005700012684A434FF0E0235A6100229A611A46FA
:10058000126942F001021A6100BF4FF0E0221069C7
:1005900010F0010F02D010F4803FF6D04FF0E022AF
:1005A000126922F001024FF0E0231A617047014600
:1005B000214A12684A434FF0E0235A6100229A61AF
:1005C0001A46126942F001021A6100BF4FF0E022A0
:1005D000106910F0010F02D010F4803FF6D04FF0F8
:1005E000E022126922F001024FF0E0231A61704705
:1005F0002DE9F04105460E464FF000020F4B28460C
:10060000314605F061FE074605F01EFE044600BFB8
:10061000B4F57A7F06D94FF47A70FFF7C8FFA4F5D6
:100620007A7403E02046FFF7C2FF0024002CEFD1CC
:10063000BDE8F081000000200400002000408F4051
:1006400010B55A48806940F4887058498861584804
:10065000006820F07F4056490860564840684FF2D5
:10066000F0018843534948605148006840F0084011
:100670004F4908600846406848F2800108434C49E9
:1006800048600846C06840F42C60C860494800686B
:1006900020F47020474908600846006840F40020B4
:1006A00008600846C06840F01000C86002220621B9
:1006B000084600F071F902220721062000F06CF9CB
:1006C00002220921062000F067F9172201210320E8
:1006D00000F037F902220B21062000F05DF92822F4
:1006E0000121032000F02DF902220421104600F020
:1006F00053F90A220121032000F023F910BD002044
:100700002B49896811F0400F01D140F04000284981
:10071000896811F4006F01D140F4006024498968B0
:1007200011F0800F01D140F080002149896811F457
:10073000007F01D140F040001E49896811F0100F80
:1007400001D140F01000704719488068184880684F
:1007500010F0800F05D11848006840F0800016495D
:1007600008601348806810F4007F05D112480068C3
:1007700040F400701049086070470D48806810F41C
:10078000006F05D10C48006840F400600A49086019
:1007900070470848806810F0100F05D106480068BF
:1007A00040F010000449086070470000001002404B
:1007B000002001400010014014040140014600BF28
:1007C000704700BF4C4A128812F0400FFAD04A4BD3
:1007D0001B1D188070472DE9F14F009805F061FD51
:1007E00080460022454B05F06FFD064632460B461B
:1007F0000020434905F0D0FB04460D46204629461B
:1008000005F022FD1FFA80FA504605F04AFD064623
:1008100022462B4605F056FE804605F015FD1FFAD0
:1008200080FB0BEB0A101FFA80FA3648806944F20D
:1008300004010843334988613348006820F47F602D
:10084000314908600846006840F0B000086008467A
:10085000006840F4006008602B480830006840F4ED
:10086000806029490831086023480830A0F800A0BA
:10087000001D008842F20C0108431F490C3108801A
:100880000846008840F02000088025220321084601
:1008900000F057F8BDE8F88F00BF1749098811F03C
:1008A000400FFAD01449091D0880704700B503466F
:1008B0001A4603E01078FFF7EFFF521C107800286B
:1008C000F8D100BD00BF0C48008810F0200FFAD00E
:1008D0000948001D0088C0B2704710B5064800885E
:1008E00010F0200F06D0FFF7EDFF0446214607A0C9
:1008F00004F05AFC10BD00000038014000003040F8
:10090000882A9141001002400408014046726F6D30
:1009100020436F6D70757465723A25630A0000009C
:10092000414A1070072222EA0000404A11684FF63F
:10093000FF02114041EA00213D4A11433B4A116048
:100940007047F0B50346384E3678C6F10406F4B267
:10095000354E37780F2646FA07F503FA04F6F0B25B
:1009600001EA050630430607300E324EB0545611E8
:100970004FF0E02707EB8606D6F8006102F01F0C67
:10098000012707FA0CF73E4357114FF0E02C0CEB10
:100990008707C7F80061F0BD70B503460846CE175B
:1009A00001EB9676C6F38704CE1701EB9676B61068
:1009B000A1EB8606B606350E1F48806940F001009F
:1009C0001D4EB0614FEAB63050F8240003FA05F628
:1009D00030431A4E46F824001948006801268E401C
:1009E0003043174E3060301D0668012088400643B2
:1009F0001348001D066012F0010F07D0001D0068AB
:100A000001268E4030430E4E0836306012F0020F41
:100A100008D00B480C30066801208840064308487F
:100A20000C30066070BD00000C0000200CED00E0F2
:100A30000000FA0500E400E0001002400800014058
:100A40000004014010B504462148C06940F001008F
:100A50001F49C861601E890408850846008840F067
:100A6000100008800846808940F0010088811C221F
:100A700001210220FFF765FF10BD4FF080418885FE
:100A8000098841F001014FF08042118070474FF01A
:100A90008040008820F001004FF0804108807047BE
:100AA00010B50C48007828B1FFF71DFD002009495A
:100AB000087004E0FFF71EFD0120064908704FF0A2
:100AC0008040008A20F001004FF08041088210BD74
:100AD000001002400D00002010B53848406940F475
:100AE0008070364948610846806940F4B470886176
:100AF0003348006820F00F0031490860084600685C
:100B000040F0030008602F48006800F0FF202D49E6
:100B100008600846006840F0BB100860081D0068C7
:100B2000294908402749091D0860084600682749E7
:100B300008432449091D08602548006820F07040DA
:100B4000234908600846006840F0304008604FF0D4
:100B5000BB30091D08601F48006820F00F001D49C8
:100B600008600846006840F00B00086008464068CE
:100B700020F4702048600846406840F43020486007
:100B800000204FF020418861C8611349086045F298
:100B900010004FF02041886140F60170C8614FF4A9
:100BA0004070C1F81C010846806940F0010088616E
:100BB0004FF03200FFF7FBFC10BD000000100240B8
:100BC000000C01400014014000F0FF00BB0B00BB13
:100BD00000180140002001401C0100A0FE490880CF
:100BE0007047FD49891C08807047FB48801C0088BD
:100BF0007047F94A1080921C1180704710B5044666
:100C00002046FFF7EBFF0320FFF7B0FCFFF7EDFFF7
:100C100010BD2DE9F0410446DDE90657012F48D10A
:100C20004FF02A0CDFF8B083A8F800C04FEA242C5C
:100C300008F10208A8F800C0C446ACF800404FEA2A
:100C4000212CA8F800C0C446ACF800104FF02B0CC3
:100C5000DFF88483A8F800C04FEA222C08F10208CC
:100C6000A8F800C0C446ACF800204FEA232CA8F82E
:100C700000C0C446ACF800304FF02C0CDFF85883AD
:100C8000A8F800C0204611E0164609E0DFF848C386
:100C90000CF1020CACF8005006F1010C1FFA8CF6B6
:100CA0009E42F3DD00F1010C1FFA8CF08842EBDD6F
:100CB000D3E04FF02A0CDFF82083A8F800C04FEAF9
:100CC000242C08F10208A8F800C0C446ACF8004083
:100CD0004FEA212CA8F800C0C446ACF800104FF031
:100CE0002B0CDFF8F482A8F800C04FEA222C08F1A0
:100CF0000208A8F800C0C446ACF800204FEA222C35
:100D0000A8F800C0C446ACF800204FF02C0CDFF867
:100D1000C882A8F800C0204609E0DFF8BCC20CF188
:100D2000020CACF8005000F1010C1FFA8CF0884264
:100D3000F3DD4FF02B0CDFF8A082A8F800C04FEADB
:100D4000232C08F10208A8F800C0C446ACF8003013
:100D50004FEA232CA8F800C0C446ACF800304FF08E
:100D60002C0CDFF87482A8F800C0204609E0DFF8F8
:100D700068C20CF1020CACF8005000F1010C1FFA33
:100D80008CF08842F3DD4FF02B0CDFF84C82A8F892
:100D900000C04FEA222C08F10208A8F800C0C4469F
:100DA000ACF800204FEA232CA8F800C0C446ACF8E9
:100DB00000304FF02A0CDFF82082A8F800C04FEA7C
:100DC000242C08F10208A8F800C0C446ACF8004082
:100DD0004FEA242CA8F800C0C446ACF800404FF0FD
:100DE0002C0CDFF8F481A8F800C0104609E0DFF809
:100DF000E8C10CF1020CACF8005000F1010C1FFA34
:100E00008CF09842F3DD4FF02A0CDFF8CC81A8F883
:100E100000C04FEA212C08F10208A8F800C0C4461F
:100E2000ACF800104FEA212CA8F800C0C446ACF87A
:100E300000104FF02C0CDFF8A081A8F800C010467D
:100E400009E0DFF894C10CF1020CACF8005000F19D
:100E5000010C1FFA8CF09842F3DDBDE8F0811CB55F
:100E600004465E4804800120CDE900405C4840888B
:100E7000401E83B25A480088401E81B200221046AC
:100E8000FFF7C7FE1CBD10B5FFF726FE0020544932
:100E90008880B020FFF7A2FE0020FFF7A2FED3203B
:100EA000FFF79CFEFFF7A1FEFFF79FFEFFF79DFEF9
:100EB0004B498880084680884FF6FF7101EA002080
:100EC00047498880FFF791FE45498988084344498E
:100ED00088800846818843A004F066F9C020FFF7A7
:100EE0007DFE0A20FFF77DFE0A20FFF77AFEC12073
:100EF000FFF774FE4420FFF774FEC520FFF76EFE77
:100F00000020FFF76EFE0920FFF76BFEB120FFF710
:100F100065FE9020FFF765FE1120FFF762FEB4200A
:100F2000FFF75CFE0220FFF75CFEB720FFF756FEDE
:100F3000C620FFF756FEB620FFF750FE0020FFF751
:100F400050FE2220FFF74DFE3B20FFF74AFEE02037
:100F5000FFF744FE0020FFF744FE0420FFF741FEA8
:100F60000620FFF73EFE0220FFF73BFE1120FFF7B1
:100F700038FE0C20FFF735FE3F20FFF732FEAC2095
:100F8000FFF72FFE4F20FFF72CFE0920FFF729FE69
:100F90000E20FFF726FE0A20FFF723FE2120FFF791
:100FA00020FE2420FFF71DFE0F20FFF71AFEE12090
:100FB000FFF714FE0020FFF714FE1B20FFF711FEC1
:100FC0001E20FFF70EFE0520FFF70BFE1120FFF796
:100FD00008FE06200AE00000FE07006C100000205A
:100FE0009000002025780D0A00000000FFF7F9FDB1
:100FF0003020FFF7F6FDFF20FFF7F3FD4020FFF75D
:10100000F0FD0320FFF7EDFD0E20FFF7EAFD0D20B8
:10101000FFF7E7FD3920FFF7E4FD3B20FFF7E1FD97
:101020000F20FFF7DEFDF220FFF7D8FD1820FFF7B5
:10103000D8FDA320FFF7D5FD1220FFF7D2FD022037
:10104000FFF7CFFDB220FFF7CCFD1220FFF7C9FD5F
:10105000FF20FFF7C6FD1020FFF7C3FD0020FFF7BC
:10106000C0FDF720FFF7BAFDA920FFF7BAFD9120D8
:10107000FFF7B7FD2D20FFF7B4FD0A20FFF7B1FD04
:101080004F20FFF7AEFDFB20FFF7A8FD2120FFF763
:10109000A8FD0420FFF7A5FD3620FFF79FFD0020E7
:1010A000FFF79FFD3A20FFF799FD5520FFF799FDC7
:1010B000F920FFF793FD0020FFF793FD0820FFF7CD
:1010C00090FDF420FFF78AFD0020FFF78AFD002045
:1010D000FFF787FD0820FFF784FD9120FFF781FDD2
:1010E0000420FFF77EFD1120FFF778FD7820FFF741
:1010F0005EFA2920FFF772FD2A20FB4908722B2097
:1011000048722C20C871002088714FF4A0700880AC
:101110004FF4F070488008213620FFF76AFDF3484D
:10112000006840F00100F14908604EF6D360FFF717
:1011300096FE10BD00B500212920FFF75AFD00BD25
:1011400000B500212820FFF754FD00BD10B52A236B
:10115000E74C23800312A41C23802346188003122B
:101160002380234618802B23A41E23800B12A41C4B
:101170002380234619800B122380234619802C23B9
:10118000A41E2380A31C1A8010BD2DE9F04704463D
:10119000089D161BA3EB01080F464FF0000C4FF003
:1011A0002A09DFF84CA3AAF800904FEA24290AF193
:1011B000020AAAF80090D146A9F800404FEA222975
:1011C000AAF80090D146A9F800204FF02B09DFF8CB
:1011D00020A3AAF800904FEA21290AF1020AAAF8EE
:1011E0000090D146A9F800104FEA2329AAF80090F0
:1011F000D146A9F800304FF02C09DFF8F4A2AAF884
:1012000000905EB9084606E0DFF8E49209F10209B1
:10121000A9F80050401C9842F6DD20E0B8F1000F1C
:101220000BD1204606E0DFF8C89209F10209A9F8BF
:101230000050401C9042F6DD11E020460DE0DFF842
:10124000B09209F10209A9F80050C444B6EB4C0F62
:1012500002DC7F1CACEB060C401C9042EFDDBDE8CD
:10126000F0872DE9F04F06460F4691469A46002436
:101270004D464FEA4900C0F103080998002852D0B2
:101280004EE0A34639E07A1991B2321990B2524633
:10129000FFF75CFF7A1991B2321B90B25246FFF70A
:1012A00055FF7A1B91B2321990B25246FFF74EFFAA
:1012B0007A1B91B2321B90B25246FFF747FF3A19A0
:1012C00091B2721990B25246FFF740FF3A1991B2AB
:1012D000721B90B25246FFF739FF3A1B91B2721956
:1012E00090B25246FFF732FF3A1B91B2721B90B296
:1012F0005246FFF72BFF0BF1010BAB45C3DDB8F1F5
:10130000000F05DA042000FB048000F1060806E067
:10131000601B042101FB008000F10A086D1E641CA3
:10132000AC42AEDD4BE048E07A1991B2321990B28E
:101330005246FFF70BFF7A1991B2321B90B2524618
:10134000FFF704FF7A1B91B2321990B25246FFF7B1
:10135000FDFE7A1B91B2321B90B25246FFF7F6FEA9
:101360003A1991B2721990B25246FFF7EFFE3A194C
:1013700091B2721B90B25246FFF7E8FE3A1B91B24F
:10138000721990B25246FFF7E1FE3A1B91B2721BFE
:1013900090B25246FFF7DAFEB8F1000F05DA0420EA
:1013A00000FB048000F1060806E0601B042101FB3D
:1013B000008000F10A086D1E641CAC42B4DDBDE87B
:1013C000F08F10B50246012000E050430B00A1F160
:1013D0000104E1B2F9D110BD2DE9FE4F0746884660
:1013E00016461C464FF0000A002002900190CDF8EE
:1013F00000804048B0F80090A6F12000C6B20C98DA
:10140000002870D10C2C01D10C200290102C01D19D
:1014100010200290202C04D1402002904FF47070D4
:10142000019000255BE00C2C06D106EB460032490A
:1014300001EB800010F805A0102C04D12F4800EB20
:10144000061010F805A0202C04D12D4800EB8610C2
:1014500010F805A04FF0000B3BE01AF0800F03D00E
:101460002448A0F8009003E026480088214908801D
:101470002048028841463846FFF768FE4FEA4A6036
:101480004FEA106A08F101001FFA80F81648018837
:1014900001980844B84204DC1648A0F80090BDE862
:1014A000FE8F0098A8EB0000A0420ED1DDF800806E
:1014B000781C87B20C48018801980844B84203DCC4
:1014C0000C48A0F80090EAE706E00BF1010000F0FC
:1014D000FF0BBBF1080FC0DB00BF681CC5B2029850
:1014E0008542A0DB7CE00FE0900000200C0C014066
:1014F000FE07006C0E000020AA7000081E75000890
:101500000E7B0008100000200C2C01D10C20029052
:10151000102C01D110200290202C04D140200290E8
:101520004FF470700190002557E00C2C06D106EBAB
:101530004600F14901EB800010F805A0102C04D101
:10154000EE4800EB061010F805A0202C04D1EC4862
:1015500000EB861010F805A04FF0000B37E01AF0F2
:10156000800F05D0414638460D9AFFF7EFFD04E0A5
:10157000414638460E9AFFF7E9FD4FEA4A604FEAC6
:10158000106A08F101001FFA80F8DE4841880198CE
:101590000844B84203DCDC48A0F800907FE70098DC
:1015A000A8EB0000A0420ED1DDF80080781C87B2C5
:1015B000D448018801980844B84203DCD248A0F816
:1015C00000906CE706E00BF1010000F0FF0BBBF1AF
:1015D000080FC4DB00BF681CC5B202988542A4DBBB
:1015E000C948A0F8009000BF59E72DE9FF4F84B02B
:1015F000064692461F46DDE911480020039000256B
:1016000060E0781B401EC1B20A20FFF7DAFEBAFB89
:10161000F0F00A21B0FBF1F201FB12090398A0BB24
:10162000781EA84234DDB9F1000F2FD118F0800FD9
:1016300015D04FF6FF71B448028808F00100A346A8
:10164000CDE90121009004EBDB71491001FB05613C
:1016500088B2234630220599FFF7BEFE14E04FF60C
:10166000FF71A948028808F00100A346CDE90121D5
:10167000009004EBDB71491001FB056188B2234641
:1016800020220599FFF7A8FE1AE001E0012003904F
:101690004FF6FF719C48028808F00100A346CDE98F
:1016A0000121009004EBDB71491001FB056188B258
:1016B00009F13001CAB223460599FFF78DFE00BF3C
:1016C000681CC5B2BD429CDB08B0BDE8F08F70B5A8
:1016D000DDE90445018042808380C48000260681C4
:1016E000468101260673056170BD2DE9FE4F044653
:1016F0000325207B02287DD1B4F9080000281DDDD8
:10170000A0882189401A401B1FFA80F8B4F804A071
:10171000E088401B1FFA80F9E0886188084428446B
:101720001FFA80FB0120794909885B464A46CDE9CA
:10173000001051464046FFF76CFA23E0B4F9080068
:1017400000281FDAA088218808441FFA80F8208921
:10175000A8EB000028441FFA80FAE088401B1FFA1B
:1017600080F9E0886188084428441FFA80FB012042
:10177000664909885B464A46CDE900105146404615
:10178000FFF747FAB4F90A0000281DDDE0886189F7
:10179000401A401B1FFA80F9B4F806B0A088401B1D
:1017A0001FFA80F8A0882188084428441FFA80FA8C
:1017B0000120564909885B464A46CDE9001051464A
:1017C0004046FFF726FA25E0B4F90A00002821DA9E
:1017D000E088618808441FFA80F96089A9EB00005D
:1017E00028441FFA80FBA088401B1FFA80F8A088BD
:1017F000218800E010E0084428441FFA80FA012004
:10180000424909885B464A46CDE9001051464046A8
:10181000FFF7FFF9BDE8FE8F2A203D490880A08828
:101820000012891C088020790880A088218808443B
:10183000401EC0F30F203649891C0880207921788A
:101840000844401EC0B23249891C08802B20891EE2
:101850000880E0880012891C0880A0790880E08850
:101860006188084400122A49891C0880A079A1785F
:101870000844C0B22649891C08802C20891E088093
:10188000207B80B900260BE0002705E01F48008878
:101890001F49891C08807F1C2088B842F6D8761C16
:1018A0006088B042F0D8207B012822D100261DE0BC
:1018B000002717E0208806FB0070012202EB4000A1
:1018C0002169085C00020290208806FB00702169F3
:1018D00011F810000299084302900D49891C0298E2
:1018E00008807F1C2088B842E4D8761C6088B0420B
:1018F000DED800BF8EE70000AA7000081E75000841
:101900000E7B0008900000200E0000201000002038
:10191000FE07006C70B501F0BFFA02F073FD0446DB
:10192000002C5FD175A003F03FFC782001F04EFF42
:1019300018B97CA003F038FC02E083A003F034FC6B
:10194000782001F02EFD18B98AA003F02DFC02E0EA
:1019500092A003F029FC642001F003FE18B99BA0BB
:1019600003F022FC02E0A3A003F01EFC00F006FB43
:1019700018B9A9A003F018FC02E0B4A003F014FC0D
:10198000C14802F0E5FC054600F002FB18B9BFA013
:1019900003F00AFC02E0C7A003F006FC40F273105B
:1019A00000F037FF18B9CFA003F0FEFB02E0D7A08C
:1019B00003F0FAFB642000F0A5FC18B9DFA003F0E7
:1019C000F3FB02E0E6A003F0EFFB02F052FC012083
:1019D00001F0B7FE18B9EEA003F0E6FB02E0F5A0B7
:1019E00003F0E2FB70BD2DE9F04F8BB00446894651
:1019F000FC48FD49FD4BFE4ACDE90010FD49FE487B
:101A000001F066F8F848008810F4807F74D0F84937
:101A1000086805F0FFF805464FF09D4104F0C8FF47
:101A2000F6490860F249486805F0F4F805464FF0B9
:101A30009D4104F0BDFFF2490860ED49886805F05A
:101A4000E9F805464FF09D4104F0B2FFED4908600A
:101A5000E749C86805F0DEF805464FF09D4104F0FF
:101A6000A7FFE9490860E54801684FF0804005F0AC
:101A700031F90690E3480168069805F02BF9834692
:101A8000DF4801684FF0804005F024F90690DE48F9
:101A90000168069805F01EF95946079005F018FAF6
:101AA000824604F0EBFECDE9080103F05DFE074637
:101AB0004FF06632D54B04F007FC054604F08AF976
:101AC000D3490860CF4801684FF0804005F002F923
:101AD0000390CC480168039805F0FCF88246C8489A
:101AE00001684FF0404005F0F5F80390C4480168E4
:101AF000039805F0EFF88DE12CE200006D70752081
:101B0000696E697469616C697A6174696F6E20636A
:101B10006F6D706C6574652E2E2E2E2E2E0D0A2084
:101B2000000000006D70755F7365745F73656E73A0
:101B30006F7220636F6D706C657465202E2E2E2E73
:101B40002E2E0D0A000000006D70755F7365745FC6
:101B500073656E736F7220636F6D65206163726F62
:101B60007373206572726F72202E2E2E2E2E2E0D04
:101B70000A0000006D70755F636F6E66696775724D
:101B8000655F6669666F20636F6D706C6574652054
:101B90002E2E2E2E2E2E0D0A000000006D70755F69
:101BA000636F6E6669677572655F6669666F2063ED
:101BB0006F6D65206163726F7373206572726F72EF
:101BC000202E2E2E2E2E2E0D0A0000006D70755F19
:101BD0007365745F73616D706C655F7261746520AD
:101BE000636F6D706C657465202E2E2E2E2E2E0D5B
:101BF0000A0000006D70755F7365745F73616D70CE
:101C00006C655F72617465206572726F72202E2E32
:101C10002E2E2E2E0D0A0000646D705F6C6F6164B5
:101C20005F6D6F74696F6E5F6472697665725F660F
:101C300069726D7761726520636F6D706C65746534
:101C4000202E2E2E2E2E2E0D0A000000646D705FA9
:101C50006C6F61645F6D6F74696F6E5F64726976DB
:101C600065725F6669726D7761726520636F6D651D
:101C7000206163726F7373206572726F72202E2EF3
:101C80002E2E2E2E0D0A000014000020646D705FB1
:101C90007365745F6F7269656E746174696F6E20CD
:101CA000636F6D706C657465202E2E2E2E2E2E0D9A
:101CB0000A000000646D705F7365745F6F72696520
:101CC0006E746174696F6E20636F6D6520616372FD
:101CD0006F7373206572726F72202E2E2E2E2E2E31
:101CE0000D0A0000646D705F656E61626C655F6611
:101CF00065617475726520636F6D706C65746520C5
:101D00002E2E2E2E2E2E0D0A00000000646D705F08
:101D1000656E61626C655F6665617475726520638E
:101D20006F6D65206163726F7373206572726F727D
:101D3000202E2E2E2E2E2E0D0A000000646D705FB8
:101D40007365745F6669666F5F7261746520636F47
:101D50006D706C657465202E2E2E2E2E2E0D0A00B1
:101D6000646D705F7365745F6669666F5F726174DE
:101D70006520636F6D65206163726F737320657298
:101D8000726F72202E2E2E2E2E2E0D0A00000000B5
:101D90006D70755F7365745F646D705F737461748B
:101DA0006520636F6D706C657465202E2E2E2E2E4F
:101DB0002E0D0A006D70755F7365745F646D705FE2
:101DC000737461746520636F6D65206163726F73F6
:101DD00073206572726F72202E2E2E2E2E2E0D0AFB
:101DE000000000004E0000204C0000203C000020BD
:101DF000D0000020460000204000002020000020ED
:101E000024000020280000202C00002066A64C4062
:101E1000300000208346514605F05AF880464FF0C6
:101E20007E5104F057FD054604F028FDCDE906017A
:101E30004A4801684FF0804004F04CFF8346484810
:101E40000168584604F046FF8046464801684FF056
:101E5000804004F03FFF834643480168584604F041
:101E600039FF8246414604F035FD054604F006FD83
:101E7000CDE90401DDE9062303F0C6FE4FF066322A
:101E80003A4BCDE9080104F01FFA064603F0A2FF21
:101E90003749086034480168006804F01BFF05906A
:101EA00030480168006804F015FF04902C48016870
:101EB000006804F00FFF029028480168006804F0F1
:101EC00009FF0190029904F005FD0390049904F0C4
:101ED000FFFF8346059904F0FBFF824604F0CEFC29
:101EE00007468846204801681C48006804F0F2FE56
:101EF00005901C4801681A48006804F0EBFE049045
:101F0000059904F0E7FC83464FF0804104F0E2FEBF
:101F1000824604F0B3FC3A464346CDE9060103F09D
:101F200073FE4FF06632114BCDE9080104F0CCF995
:101F3000054603F04FFF0F4908600F48006804F0A2
:101F40002DFE00B2A9F800000948006804F026FE42
:101F500000B220800BB0BDE8F08F00002000002010
:101F600024000020280000202C00002066A64C4001
:101F700034000020380000203000002010B5C823B5
:101F80004FF48062F74940F6F63002F08DFE10BD46
:101F900010B586B00446F4A000680390F3A0006872
:101FA0000290F3A000680190F2A00068009004F095
:101FB000030003A9085C8DF8140003A8C4F3C10151
:101FC000405C8DF8150003A8C4F38111405C8DF8C6
:101FD000160004F0030002A9085C8DF8100002A8A6
:101FE000C4F3C101405C8DF8110002A8C4F3811153
:101FF000405C8DF8120005AA032140F2264002F051
:10200000D6FD18B14FF0FF3006B010BD04AA032171
:1020100040F22A4002F0CBFD10B14FF0FF30F3E761
:10202000019805900098049014F0040F0BD09DF8CF
:10203000140040F001008DF814009DF8100040F0ED
:1020400001008DF8100014F0200F0BD09DF8150042
:1020500040F001008DF815009DF8110040F00100DE
:102060008DF8110014F4807F0BD09DF8160040F01D
:1020700001008DF816009DF8120040F001008DF867
:10208000120005AA03214FF4886002F090FD10B100
:102090004FF0FF30B8E704AA032140F2314002F0CC
:1020A00086FD10B14FF0FF30AEE7B3480481002049
:1020B000AAE71FB50446B048007A00F0030054F8C0
:1020C00020000190AC48007A10F0040F02D0019873
:1020D00040420190A848007AC0F3C10054F82000A3
:1020E0000290A548007A10F0200F02D002984042DA
:1020F0000290A148007AC0F3811054F820000390A8
:102100009D48008910F4807F02D0039840420390DC
:102110009A49019880FB0101800F40EA81000190FB
:102120009649029880FB0110820042EA9170029069
:102130009249039880FB0110820042EA917003905B
:102140000198000E8DF800000198000C8DF8010038
:102150000198000A8DF802000198C0B28DF80300C2
:102160006A4604214FF4747002F021FD18B14FF05B
:10217000FF3004B010BD0298000E8DF800000298E8
:10218000000C8DF801000298000A8DF802000298F8
:10219000C0B28DF803006A4604214FF4757002F056
:1021A00006FD10B14FF0FF30E3E70398000E8DF805
:1021B00000000398000C8DF801000398000A8DF8C8
:1021C00002000398C0B28DF803006A4604214FF460
:1021D000767002F0ECFCCCE770B588B0064601A83A
:1021E00000F036FFBDF804000021C90341EA504564
:1021F000C4036148007A00F0030056F820000590FF
:102200005D48007A10F0040F02D005984042059016
:102210005948007AC0F3C10056F82000069056488D
:10222000007A10F0200F02D00698404206905248E3
:10223000007AC0F3811056F8200007904E480089BC
:1022400010F4807F02D00798404207900598C1178C
:10225000A0FB042301FB043100FB0510810041EACF
:10226000927005900698C117A0FB042301FB04316E
:1022700000FB0510810041EA927006900798C11793
:10228000A0FB042301FB043100FB0510810041EA9F
:10229000927007900598000E8DF808000598000CC4
:1022A0008DF809000598000A8DF80A000598C0B25B
:1022B0008DF80B000698000E8DF80C000698000CA7
:1022C0008DF80D000698000A8DF80E000698C0B231
:1022D0008DF80F000798000E8DF810000798000C7D
:1022E0008DF811000798000A8DF812000798C0B207
:1022F0008DF8130002AA0C214FF4257002F057FC50
:1023000008B070BD30B585B004461DA207CA02AB47
:1023100007C3C82C03DD4FF0FF3005B030BDC82027
:1023200090FBF4F0401E85B2280A8DF80000E8B258
:102330008DF801006A46022140F2162002F037FCB7
:1023400010B14FF0FF30E8E702AA0C2140F6C1209F
:1023500002F02DFC10B14FF0FF30DEE7064884811B
:102360000020DAE7CE9200084CCD6C000CC92C009E
:102370003656760026466600E000002009E3CA02D1
:10238000FEF2ABC4AAF1DFDFBBAFDFDF0146FC48E2
:1023900080890880002070472DE9FC4706460F46DB
:1023A00016F0070F02D0B7F5C86F03DD4FF0FF300E
:1023B000BDE8FC87384604F045FC8146F14904F04D
:1023C000F7FA8046684601F085FE9DF80000022875
:1023D00006D0042816D0082826D0102848D135E089
:1023E0004FF08D41404604F075FC814604F0F2FB4D
:1023F00084B2E549404604F06DFC814604F0EAFBF6
:1024000085B238E04FF08C41404604F063FC8146D1
:1024100004F0E0FB84B2DD49404604F05BFC8146F9
:1024200004F0D8FB85B226E04FF08B41404604F023
:1024300051FC814604F0CEFB84B2D549404604F0FD
:1024400049FC814604F0C6FB85B214E04FF08A4196
:10245000404604F03FFC814604F0BCFB84B2CD4909
:10246000404604F037FC814604F0B4FB85B202E03C
:102470004FF0FF309CE700BF20128DF80400E0B25F
:102480008DF8050028128DF80600E8B28DF80700D7
:1024900016F0010F14D001AA02214FF4EA7002F0E5
:1024A00086FB10B14FF0FF3082E70DF106020221EA
:1024B0004FF4927002F07BFB10B14FF0FF3077E7E2
:1024C00016F0020F14D001AA02214FF4EC7002F0B2
:1024D0006EFB10B14FF0FF306AE70DF106020221EA
:1024E0004FF4947002F063FB10B14FF0FF305FE7E0
:1024F00016F0040F14D001AA02214FF4EE7002F07E
:1025000056FB10B14FF0FF3052E70DF106020221E9
:102510004FF4967002F04BFB10B14FF0FF3047E7DD
:10252000002045E738B504460020009014F0010F64
:1025300004D09DF8000040F03000009014F0020F2D
:1025400004D09DF8000040F00C00009014F0040F3F
:1025500004D09DF8000040F0030000906A4601217D
:102560004FF4A47002F023FB38BD38B50446012CAB
:1025700001DA012402E0042C00DD0424601EC0B254
:1025800000906A46012140F24F1002F010FB38BD66
:1025900038B50446052094FBF0F085B228128DF87A
:1025A0000000E8B28DF801006A4602214FF4EF7096
:1025B00002F0FDFA38BD38B50446052094FBF0F072
:1025C00085B228128DF80000E8B28DF801006A4645
:1025D00002214FF4ED7002F0EAFA38BDF8B5054675
:1025E0000E464FF47A7095FBF0F000FB06F4200ED7
:1025F0008DF80000200C8DF80100200A8DF80200F3
:10260000E0B28DF803006A4604214FF4AE7002F088
:10261000CEFAF8BD38B50446052094FBF0F084B23C
:1026200020128DF80000E0B28DF801006A46022108
:102630004FF4AD7002F0BBFA38BD38B50446052042
:1026400094FBF0F084B220128DF80000E0B28DF817
:1026500001006A4602214FF4AC7002F0A8FA38BDBE
:1026600038B5044614B94FF0FF3038BD6A4604212E
:102670004FF4587002F0D8FA10B14FF0FF30F4E781
:102680009DF8000000069DF8011040EA01409DF809
:10269000021040EA01209DF803100843206000204A
:1026A000E3E738B50446200E8DF80000200C8DF8C5
:1026B0000100200A8DF80200E0B28DF803006A469E
:1026C00004214FF4587002F072FA38BD38B5044650
:1026D00014B94FF0FF3038BD6A4604214FF47170D1
:1026E00002F0A2FA10B14FF0FF30F4E79DF80000BD
:1026F00000069DF8011040EA01409DF8021040EAF2
:1027000001209DF80310084300EB8000800020604A
:102710000020E0E738B504461420B4FBF0F4200EA6
:102720008DF80000200C8DF80100200A8DF80200C1
:10273000E0B28DF803006A4604214FF4717002F094
:1027400036FA38BD38B5044664B120208DF8000053
:1027500028208DF8010030208DF8020038208DF8F7
:10276000030004E0A3220421684602F0E1FD6A466A
:10277000042140F69E2002F01AFA00F0ADFC38BDAC
:10278000E000002000004843000040460000C04533
:10279000000040450000C04438B5044664B1C02084
:1027A0008DF80000C2208DF80100C4208DF80200D1
:1027B000C6208DF8030004E08B220421684602F055
:1027C000B7FD6A46042140F6982002F0F0F900F0C7
:1027D00083FC38BD3EB504466CB1FCA1D1E90020B4
:1027E0008968CDE9002002916A4609214FF497607B
:1027F00002F0DDF93EBDF8A2D2E900109268CDE901
:10280000010200916A4609214FF4976002F0CFF966
:10281000F0E73EB5044602208DF80000CA208DF88E
:102820000100E3208DF8020009208DF803006A46BC
:102830000421682002F0BBF9A3208DF8000014F0F9
:10284000400F09D0C0208DF80100C8208DF802008B
:10285000C2208DF8030006E0A3208DF801008DF85A
:1028600002008DF8030014F4C07F09D0C4208DF855
:102870000400CC208DF80500C6208DF8060006E087
:10288000A3208DF804008DF805008DF80600A32024
:102890008DF807008DF808008DF809006A460A21B6
:1028A00040F6A72002F083F914F0030F03D0202094
:1028B0008DF8000002E0D8208DF800006A46012162
:1028C00040F6B62002F073F914F0200F03D0012077
:1028D000FFF780FF02E00020FFF77CFF14F4C07FC9
:1028E00021D014F4807F0CD0B2208DF800008B2012
:1028F0008DF80100B6208DF802009B208DF80300B2
:102900000BE0B0208DF8000080208DF80100B4208D
:102910008DF8020090208DF803006A46042140F6ED
:10292000A22002F044F914F0010F24D0F8208DF811
:1029300000006A4601214FF40B6002F038F9FA21D9
:102940000720FFF729FD0720FFF7ECFD0120FFF727
:102950000CFE6420FFF71CFE4FF4FA70FFF72BFE0D
:10296000C821A048FFF73AFE2820FFF753FE0A20AF
:10297000FFF763FE08E0D8208DF800006A460121C9
:102980004FF40B6002F013F914F0020F03D0D920BA
:102990008DF8000002E0D8208DF800006A46012181
:1029A00040F23D7002F003F914F0040F03D001204F
:1029B000FFF7F2FE02E00020FFF7EEFE14F0100F2A
:1029C00003D00120FFF7BEFE02E00020FFF7BAFEB1
:1029D00044F008008449488100F07EFB00208249D1
:1029E000887314F0400F03D00846807B801D8873E5
:1029F00014F4C07F04D07C48807B801D7A498873A2
:102A000014F0140F04D07848807B10307649887316
:102A100014F0030F04D07448807B001D7249887342
:102A200000203EBD01467048408908800020704764
:102A30002DE9F0410446E07800F0C006E07800F0AF
:102A40003F05607810F0010F13D0EF102846E9170A
:102A500005EB5171C910A5EBC101491C01F0FF083C
:102A60006148006820B16048414602683846904796
:102A700000BF607810F0080F06D05B48406818B1BE
:102A8000B011594A516888470020BDE8F08110B55F
:102A900086B0044655A207CA03AB07C356A207CAAD
:102AA0008DE80700012C09D0022C0ED103AA0B21BE
:102AB00040F6822002F07BF806B010BD6A460B217A
:102AC00040F6822002F073F8F6E74FF0FF30F3E7AC
:102AD0002DE9F04F8DB00746884615469946DDE949
:102AE000166B0024002030803F49887B5A4605A998
:102AF00001F0FAFF18B1601E0DB0BDE8F08F3A4842
:102B0000807A10F0140F7DD09DF8140000069DF817
:102B1000151040EA01409DF8161040EA01209DF88A
:102B20001710084328609DF8180000069DF819103A
:102B300040EA01409DF81A1040EA01209DF81B1060
:102B4000084368609DF81C0000069DF81D1040EACF
:102B500001409DF81E1040EA01209DF81F10084317
:102B6000A8609DF8200000069DF8211040EA014071
:102B70009DF8221040EA01209DF823100843E860E8
:102B800004F11000C4B228680014019068680014B1
:102B90000290A86800140390E8680014049001985B
:102BA0004043029901FB0100039901FB01000499D4
:102BB00001FB010ABAF1706F02DBBAF1885F22DD16
:102BC00000F08AFA00203080401E95E7B8AAB38D45
:102BD000B4980D355D000000B8AAAAAAB088C3C594
:102BE000C700000009E3CA02E0000020D8B1B9F331
:102BF0008BA391B609B4D900DAB1B9F38BA391B61E
:102C0000DAB4DA0005E0B6F9000040F480703080F4
:102C100000BFF948807A10F0400F24D005A9601C4D
:102C2000085C095D40EA012000B2A8F8000005A98F
:102C3000E01C095C05AAA01C105C41EA002000B25F
:102C4000A8F8020005A9601D095C201D105C41EA7E
:102C5000002000B2A8F80400A01DC4B2B6F900001C
:102C600040F008003080E448408910F4C07F21D053
:102C700005A9601C085C095D40EA012000B23880AB
:102C800005A9E01C095C05AAA01C105C41EA002013
:102C900000B2788005A9601D095C201D105C41EA26
:102CA000002000B2B880A01DC4B2B6F9000040F008
:102CB00070003080D048807A10F0030F03D005A94F
:102CC0000819FFF7B5FE484601F056FB002013E750
:102CD0000146C9480160002070470146C64841606E
:102CE0000020704708B50720009002E00098401EC1
:102CF000009000980028F9D108BD10B50120BF4907
:102D00000860BF49C1F89801FFF7ECFFBD480068B3
:102D100008B9002010BD0020B8490860FFF7E2FFA5
:102D2000B748D0F81C0108B10020F3E70020B349F0
:102D30000860FFF7D7FF0120ECE710B50020B2498B
:102D40000860FFF7CFFF0020AD49C1F89C01FFF7F5
:102D5000C9FF0120AC490860FFF7C4FF0120A84962
:102D6000C1F89C01FFF7BEFF10BD10B50020A649B9
:102D70000860FFF7B7FF0020A149C1F89C01FFF7E9
:102D8000B1FF0120A0490860FFF7ACFF00209C497B
:102D9000C1F89801FFF7A6FF10BD10B500209A49B1
:102DA0000860FFF79FFF01209549C1F89C01FFF7DC
:102DB00099FF012094490860FFF794FF0020904993
:102DC000C1F89801FFF78EFF10BD10B500208E49A5
:102DD0000860FFF787FF01208949C1F89C01FFF7D0
:102DE00081FF012088490860FFF77CFF8448D0F804
:102DF0001C0118B100208449086010BD00208249E0
:102E000008604FF00100F8E770B50446082519E0A6
:102E100000207D490860FFF765FF14F0800F03D0A4
:102E200001207649086002E00020744908604FEAFA
:102E300044604FEA1064FFF755FF012072490860B3
:102E4000FFF750FF2800A5F10101CDB2E0D16E4996
:102E5000086070BD70B5082500240120674908602E
:102E600011E06006040E002067490860FFF73AFF92
:102E700001206349C1F89801FFF734FF61480068F9
:102E800008B144F001042800A5F10101CDB2E8D158
:102E90005D490860204670BD5C48806940F00800CC
:102EA0005A4988615A48006820F07F4058490860B4
:102EB0000846006840F0AA40086070472DE9F041DC
:102EC00005460E4617469846FFF717FF10B9002033
:102ED000BDE8F081002141EA4501C8B2FFF794FF47
:102EE000FFF773FF18B9FFF728FF0020F0E730461F
:102EF000FFF78AFFFFF769FF00240BE018F80400D2
:102F0000FFF782FFFFF761FF18B9FFF716FF0020F8
:102F1000DEE7641CBC42F1DBFFF70FFF0120D7E7BF
:102F20002DE9F04104460D4616461F463B46324603
:102F300029462046FFF7C2FF10B10020BDE8F0810E
:102F40004FF0FF30FAE72DE9F04105460F461446F1
:102F50001E46FFF7D2FE10B90020BDE8F081002127
:102F600041EA4501C8B2FFF74FFFFFF72EFF18B93E
:102F7000FFF7E3FE0020F0E73846FFF745FFFFF7D5
:102F800024FFFFF7BAFE012101EB4501C8B2FFF7AC
:102F90003BFFFFF71AFF0CE0FFF75CFF3070012CDE
:102FA00002D1FFF7FAFE01E0FFF7DFFE761C601E9C
:102FB000C4B2002CF0D1FFF7C0FE0120CDE72DE90F
:102FC000F04104460D4616461F463B46324629460A
:102FD0002046FFF7B8FF10B10020BDE8F0814FF0A8
:102FE000FF30FAE770B504460D461646FFF785FE3A
:102FF00080B9002070BD0000E00000209C812142CB
:10300000008021421C81214298812142001002400F
:10301000000C0140002141EA4401C8B2FFF7F4FE70
:10302000FFF7D3FE18B9FFF788FE0020E2E7284635
:10303000FFF7EAFEFFF7C9FE3046FFF7E5FEFFF7B0
:10304000C4FEFFF77AFE0120D4E70020704700009D
:103050000146FE48407A30B1012808D002280AD043
:10306000032810D10BE04FF4804008800EE041F6B9
:103070009C7008800AE04FF48050088006E04FF40E
:103080000060088002E04FF0FF30704700BFEF485B
:10309000C07C10B10888401008800020F5E7014688
:1030A000EA48007A30B1012807D0022808D0032866
:1030B0000CD108E0E64808600BE0E648086008E04C
:1030C000E548086005E0E548086002E04FF0FF30A1
:1030D000704700BF0020FBE708B5DC48807A10B9D4
:1030E0004FF0FF3008BD00200090D84A1268D17B15
:1030F000D64A526810786B460122FFF711FF10B1D3
:103100004FF0FF30EEE7D14A12685179CF4A52684A
:1031100010786B460122FFF703FF10B14FF0FF302C
:10312000E0E7CA4A12681179C84A526810786B46BB
:103130000122FFF7F5FE10B14FF0FF30D2E7C34890
:1031400090F82400002853D00C200090BF4A126849
:103150001179BE4A526810786B460122FFF7E0FEF3
:1031600010B14FF0FF30BDE73220FDF720FAC0204C
:103170000090B648807A10F0010F04D09DF800004E
:1031800040F020000090B14A12681179AF4A5268AD
:1031900010786B460122FFF7C3FE10B14FF0FF30ED
:1031A000A0E7AA48407C10B10220009001E0002076
:1031B0000090A64A1268D17BA44A526810786B46E8
:1031C0000122FFF7ADFE10B14FF0FF308AE700207B
:1031D00000909E4A126851799C4A526810786B465A
:1031E0000122FFF79DFE002855D04FF0FF3079E710
:1031F00004200090954A12681179944A5268107818
:103200006B460122FFF78CFE10B14FF0FF3069E7EB
:103210008E48807C20B98D48807A10F0010F02D151
:103220004020009001E060200090884A12681179E7
:10323000864A526810786B460122FFF771FE10B182
:103240004FF0FF304EE73220FDF7B1F97F48407C68
:1032500010B10120009001E0002000907B4A12682C
:10326000D17B7A4A526810786B460122FFF758FEEC
:1032700010B14FF0FF3035E7744A12685179734A44
:1032800052681078714B10330122FFF749FE10B1DC
:103290004FF0FF3026E7002024E738B504466B489E
:1032A00090F82400C0B114B10220009001E0002089
:1032B0000090664A1268D17B644A526810786B4667
:1032C0000122FFF72DFE10B14FF0FF3038BD9DF801
:1032D00000105E48417423E05C48807A10B94FF0DA
:1032E000FF30F3E724B15948407C08B10020EDE7F6
:1032F00014B10120009001E000200090534A1268B0
:10330000D17B524A526810786B460122FFF708FEC3
:1033100010B14FF0FF30D9E79DF800104B484174D1
:103320000020D3E738B504464848807A10B94FF0FA
:10333000FF3038BDBC2C02DB0120009015E0622C70
:1033400002DB0220009010E02A2C02DB0320009018
:103350000BE0142C02DB0420009006E00A2C02DBB8
:103360000520009001E0062000903848C07A9DF8C2
:103370000010884201D10020DBE7344A12689178BE
:10338000324A526810786B460122FFF7C9FD10B12E
:103390004FF0FF30CDE79DF800102C48C17200209F
:1033A000C7E770B50446002624F00104274890F8CA
:1033B000240008B1002070BD2448807A10B94FF075
:1033C000FF30F8E72148057C807A20401F490874C7
:1033D0000846007CA04202D04FF0FF3600E00026F5
:1033E00014B91A48007D18B10120FFF756FF02E01A
:1033F0000020FFF752FF3CB1FFF76EFE20B11348EB
:1034000005744FF0FF30D6E73046D4E738B50446B0
:103410000E4890F82300A04201D1002038BD14B11D
:103420003020009001E0002000900848807C20B10E
:103430009DF8000040F002000090044890F822003F
:1034400078B19DF8000040F0800009E050000020B5
:10345000000003430000834233330342333383418C
:103460000090FE4A1268117DFC4A526810786B4643
:103470000122FFF755FD10B14FF0FF30CEE7F748BE
:1034800080F823400020C9E738B50446282C02DD27
:103490004FF0FF3038BDDCB90020FFF7B7FF002048
:1034A0008DF8000007208DF80100EC4A1268917C2D
:1034B000EA4A526810786B460222FFF731FD10B1DC
:1034C0004FF0FF30E6E70021E44801750020E1E716
:1034D0000120FFF79BFF20208DF80000012C06D172
:1034E00000208DF801000520FFF71CFF17E0052CD8
:1034F00006DC01208DF801000520FFF713FF0EE028
:10350000142C06DC02208DF801000A20FFF70AFFC8
:1035100005E003208DF801001420FFF703FF9DF85C
:103520000100072101EB8010C0B28DF80100CB4AE9
:103530001268917CC94A526810786B460222FFF7E4
:10354000EFFC10B14FF0FF30A4E70821C3488172AF
:1035500000210173012101750020FFF722FF0020E7
:1035600098E738B50446BD48807A10B94FF0FF306F
:1035700038BDBA4890F8240010B14FF0FF30F7E79B
:10358000B648007D50B134B1282C04DCE0B2FFF71E
:103590007BFF0020ECE70020FFF776FF042C01DA28
:1035A000042404E0B4F57A7F01DD4FF47A744FF41B
:1035B0007A7090FBF4F0401EC0B20090A74A1268E7
:1035C0005178A64A526810786B460122FFF7A8FC92
:1035D00010B14FF0FF30CBE79DF80000401C4FF4D6
:1035E0007A7191FBF0F081B29C48C1810146C98992
:1035F0004810FFF797FE0020BAE738B50446974811
:10360000807CA04201D1002038BD002C46D0934AD6
:1036100012681179914A526810786B460122FFF7BF
:10362000CEFC10B14FF0FF30EEE79DF8000020F027
:1036300020000090894A12681179884A52681078EF
:103640006B460122FFF76CFC10B14FF0FF30DBE757
:103650000320FCF7ACFF02200090804890F8220085
:1036600020B19DF8000040F0800000907B4890F869
:10367000230020B19DF8000040F030000090774A10
:103680001268117D754A526810786B460122FFF767
:1036900047FC002851D04FF0FF30B5E76F4A126861
:1036A00011796E4A526810786B460122FFF787FC49
:1036B00010B14FF0FF30A7E76848807A10F0010F93
:1036C00005D09DF8000040F02000009004E09DF837
:1036D000000020F020000090604A126811795F4AD3
:1036E000526810786B460122FFF71AFC10B14FF0B8
:1036F000FF3089E70320FCF75AFF584890F8220072
:1037000010B18020009001E000200090534890F814
:10371000230020B19DF8000040F0300000904F4A97
:103720001268117D4D4A526810786B460122FFF7EE
:10373000F7FB10B14FF0FF3066E748488474002073
:1037400062E738B50446454890F82400A04201D10C
:10375000002038BD24B3414890F8250010B94FF03F
:10376000FF30F6E70020FFF798FD0020FFF745FF48
:103770003A49C88CFFF7F5FE0020009037494968A8
:1037800008786B4601222321FFF7CAFB0121334849
:1037900080F824100120FFF780FDFFF79DFC13E067
:1037A0000020FFF77AFD2D48007C00902B494968E6
:1037B00008786B4601222321FFF7B2FB002127483E
:1037C00080F82410FFF788FC0020C2E738B50446D3
:1037D00014F0700F02D00120009005E014B1002019
:1037E000009001E0402000901C4A1268917C1B4A26
:1037F000526810786B460122FFF792FB20B100213E
:1038000016488172481E38BD9DF8000020F0400126
:10381000124801730020009014F0400F04D19DF86D
:10382000000040F00400009014F0200F04D19DF837
:10383000000040F00200009014F0100F04D19DF839
:10384000000040F00100009014F0080F04D19DF832
:10385000000040F038000090004A01E050000020D5
:103860001268D17CF74A526810786B460122FFF744
:1038700057FB20B10021F3488172481EC3E724B1F1
:10388000082C02D00020FFF7C1FDEE488472002111
:1038900001753220FCF78BFE0020B4E738B50446F2
:1038A000E848807A10B94FF0FF3038BD022C06D0BE
:1038B000042C07D0082C08D0102C0CD108E00020D4
:1038C00000900BE00820009008E01020009005E038
:1038D0001820009002E04FF0FF30E6E700BFD94823
:1038E000407A9DF80010B0EBE10F01D10020DCE739
:1038F000D44A1268D179D34A526810786B460122B3
:10390000FFF70EFB10B14FF0FF30CEE79DF800003F
:10391000C110CC4841720020C7E738B50446C948F9
:10392000807A10B94FF0FF3038BDFA2C09D0B4F5C9
:10393000FA7F09D0B4F57A7F09D0B4F5FA6F0CD1CB
:1039400008E0002000900BE00820009008E0102024
:10395000009005E01820009002E04FF0FF30E3E710
:1039600000BFB848007A9DF80010B0EBE10F01D11C
:103970000020D9E7B34A12689179B24A52681078A8
:103980006B460122FFF7CCFA10B14FF0FF30CBE7C6
:103990009DF80000C010AB4908720020C4E72DE973
:1039A000FC5F06460F460025A6494968087801AB2A
:1039B00003220D21FFF703FB10B10720BDE8FC9F98
:1039C0009DF8040000F01F008DF804009DF805002C
:1039D00000F01F008DF805009DF8060000F01F00A4
:1039E0008DF80600002454E056F8240057F82410FF
:1039F000B0EB010B01D4594601E0CBF100010846C0
:103A000003F008F94FF08F41009002F0D1FF81469A
:103A100001A8005D68B38C49086803F013F9834678
:103A200059468A4802F0C4FF804604E0884940466F
:103A300003F050F9804601A8005D401E10F0FF0021
:103A400001A90855F2D14146484602F0B1FF83462C
:103A50004FF07E5103F03CFA82462AF0004B7A4840
:103A60008169584603F002FA12D20120A0400543B2
:103A70000EE075480169484603F0F8F805D372482E
:103A80004169484603F0F2F902D20120A040054303
:103A9000641C032CA8DB284690E77CB505466949E1
:103AA0004968087801AB04220D21FFF788FA08B1B4
:103AB00007207CBD9DF80700C0F301109DF804109D
:103AC00001F0E00140EAE1008DF800009DF80700F8
:103AD000C0F381009DF8051001F0E00140EAE1002B
:103AE0008DF801009DF8070000F003009DF8061016
:103AF00001F0E00140EAE1008DF8020000241CE042
:103B00001DF8040018B9002045F8240013E05148BE
:103B100045F8240006E055F824004F4903F0DAF890
:103B200045F824001DF80400401E10F0FF000DF8B9
:103B30000400F0D100BF601CC4B2032CE0DB002005
:103B4000B7E72DE9FE4F06460F4600256846FFF70A
:103B5000A4FF002440E056F8240057F82410B0EBEE
:103B6000010A01D4514601E0CAF10001084603F000
:103B700051F883464FF08F4102F01AFF80465DF8FE
:103B80002400002102F0D6FF16D05DF82410404634
:103B900002F00EFF82464FF07E5103F099F9814604
:103BA00029F0004A2848416A504603F05FF912D2D2
:103BB0000120A04005430EE02348C169404603F0C0
:103BC00055F805D32048016A404603F04FF902D268
:103BD0000120A0400543641C032CBCDB2846BDE843
:103BE000FE8F2DE9F04F87B005460C469146012027
:103BF0008DF8100000208DF81100124A1268917C97
:103C0000104A5268107804AB0222FFF789F920B1FC
:103C10004FF0FF3007B0BDE8F08FC820FCF7C7FCBD
:103C200000208DF81000074A1268D17B054A5268BF
:103C3000107804AB0122FFF773F978B14FF0FF3031
:103C4000E8E7000050000020EC9E000800B04C4562
:103C500054E3853F7B14AE3E1D5A843FFC4A1268F4
:103C60005179FB4A5268107804AB0122FFF758F9EA
:103C700010B14FF0FF30CDE7F54A1268917CF44A5D
:103C80005268107804AB0122FFF74AF910B14FF0E7
:103C9000FF30BFE7EE4A1268D17DED4A52681078D6
:103CA00004AB0122FFF73CF910B14FF0FF30B1E750
:103CB000E74A12681179E64A5268107804AB01228B
:103CC000FFF72EF910B14FF0FF30A3E70C208DF86D
:103CD0001000DF4A12681179DD4A5268107804AB8F
:103CE0000122FFF71DF910B14FF0FF3092E70F20CE
:103CF000FCF75DFCD648806A407A8DF81000D44A03
:103D000012689178D24A5268107804AB0122FFF70A
:103D100007F910B14FF0FF307CE7CD48806A007A98
:103D20008DF81000CA4A12685178C94A5268107852
:103D300004AB0122FFF7F4F810B14FF0FF3069E750
:103D4000B9F1000F07D0C248806A807A40F0E000E5
:103D50008DF8100004E0BE48806A807A8DF810006B
:103D6000BB4A12689179BA4A5268107804AB0122B2
:103D7000FFF7D6F810B14FF0FF304BE7B9F1000F65
:103D800007D0B348806AC07A40F0E0008DF8100098
:103D900003E0B048C07A8DF81000AD4A1268D179BE
:103DA000AB4A5268107804AB0122FFF7B9F810B1A2
:103DB0004FF0FF302EE7B9F1000F02D0C820FCF71A
:103DC000F6FB40208DF81000A14A12681179A04A34
:103DD0005268107804AB0122FFF7A2F810B14FF03F
:103DE000FF3017E778208DF81000994A1268517952
:103DF000974A5268107804AB0122FFF791F810B18E
:103E00004FF0FF3006E793498889FCF7D0FB00208C
:103E10008DF810008E4A126851798D4A52681078D8
:103E200004AB0122FFF77CF810B14FF0FF30F1E650
:103E3000874A1268917A864A5268107804AB022247
:103E4000FFF7BDF810B14FF0FF30E3E69DF8110029
:103E50009DF8101040EA012B0C209BFBF0F0C6B23D
:103E60000020A86068602860A060606020608246D2
:103E700065E0774A1268D17A754A5268107804ABC7
:103E80000C22FFF79CF810B14FF0FF30C2E69DF80E
:103E900011009DF8101040EA012000B2ADF80800B2
:103EA0009DF813009DF8121040EA012000B2ADF811
:103EB0000A009DF815009DF8141040EA012000B298
:103EC000ADF80C00BDF90810206808442060BDF969
:103ED0000A10606808446060BDF90C10A0680844CE
:103EE000A0609DF817009DF8161040EA012000B26E
:103EF000ADF800009DF819009DF8181040EA012067
:103F000000B2ADF802009DF81B009DF81A1040EABF
:103F1000012000B2ADF80400BDF900102868084483
:103F20002860BDF90210686808446860BDF9041093
:103F3000A8680844A8600AF1010000F0FF0AB24531
:103F400097DB4448D0F800C02868C117090441EA4B
:103F50001041070462460023384601F000F932465A
:103F60000023CDE9020101F0FAF828603948D0F8C1
:103F700000C06868C117090441EA1041070462469D
:103F80000023384601F0EBF832460023CDE9020168
:103F900001F0E5F868602F48D0F800C0A868C117A4
:103FA000090441EA1041070462460023384601F043
:103FB000D6F832460023CDE9020101F0D0F8A8601E
:103FC0002448D0F804C02168C817000440EA11480A
:103FD0000F04624600233846414601F0C0F83246DD
:103FE0000023CDE9020101F0BAF820601948D0F8A9
:103FF00004C06068C117090441EA10410704624621
:104000000023384601F0ABF832460023CDE9020127
:1040100001F0A5F860600F48D0F804C0A068C1178F
:10402000090441EA1041070462460023384601F0C2
:1040300096F832460023CDE9020101F090F8A06025
:10404000A068002808DDA068A0F58030A06007E027
:1040500050000020EC9E0008A06800F58030A060B1
:104060000020D7E50146FA48007C08700020704720
:104070000146F74890F8240010B14FF0FF30704728
:10408000F348C08908800020F9E70146F048C07A6B
:10409000082817D2DFE800F01704070A0D101318DC
:1040A000BC20088013E06220088010E02A200880ED
:1040B0000DE0142008800AE00A20088007E00520AF
:1040C000088004E000BF00BF0020088000BF00BFE0
:1040D000002070470146DE48407A30B1012807D001
:1040E000022808D003280CD108E0022008700BE059
:1040F0000420087008E00820087005E0102008700F
:1041000002E04FF0FF30704700BFD148C07C18B1CB
:1041100008784006000E08700020F4E70146CC48FD
:10412000007A30B1012807D0022809D003280FD126
:104130000AE0FA2008800EE04FF4FA7008800AE0E6
:104140004FF47A70088006E04FF4FA60088002E0CD
:104150000020088000BF00BF002070472DE9F04F0D
:104160008DB083460F4602200C90B94890F8240089
:1041700020B10020FFF7E5FA012600E0002603A8A1
:10418000FFF7CCFF05A8FFF7A5FF01A8FFF77DFF0C
:1041900002A8FFF76DFFAE4890F80AA004A8FFF749
:1041A00061FF002407E0002239465846FFF719FD59
:1041B00000B902E0641C022CF5DB00BF022C01D127
:1041C000002528E0002407E0012206A909A8FFF73E
:1041D00008FD00B902E0641C022CF5DB00BF022CD4
:1041E00001D1002517E006A93846FFF7AAFC00F028
:1041F000FF0809A95846FFF7D2FB00F0FF09002588
:10420000B9F1000F01D145F00105B8F1000F01D15E
:1042100045F0020500BFFF208D490872FF218C4840
:104220004172C1724FF6FF71C181FF218172017429
:1042300001210173BDF80C00FFF76FFB9DF814001E
:10424000FFF72CFBBDF80400FFF76CF8BDF8080081
:10425000FFF787F95046FFF7B9FA9DF81000FFF70E
:10426000A0F816B10120FFF76CFA28460DB0BDE8A2
:10427000F08F70B588B002A905A8FFF76FFF04465C
:10428000072C3CD101A8FEF70AFF059802F0C2FCFA
:104290000646019902F01EFD054602F07FFC0590DE
:1042A000069802F0B7FC0646019902F013FD054698
:1042B00002F074FC0690079802F0ACFC06460199E7
:1042C00002F008FD054602F069FC079005A8FDF71D
:1042D000F0FE6846FEF7BCFEBDF8001002984843A9
:1042E0000290BDF80010039848430390BDF80010F9
:1042F00004984843049002A8FDF76EFF00BF08B081
:1043000070BD014691F90020002A01DD00201EE069
:1043100091F90020002A01DA042018E091F9012027
:10432000002A01DD012012E091F90120002A01DAC2
:1043300005200CE091F90220002A01DD022006E0B0
:1043400091F90220002A01DA062000E007207047D8
:1043500010B504462046FFF7D4FF0346E01CFFF7E4
:10436000D0FF43EAC00083B2A01DFFF7CAFF43EAB3
:10437000801083B2184610BD704738B5002419E08C
:1043800033480068C07AA04204D031480068407DBC
:10439000A04200D10CE02E49496808786B46012202
:1043A0002146FEF70CFE10B14FF0FF3038BD00BFC4
:1043B000601CC4B2264840680079A042E0DC0020BE
:1043C000F4E770B504460D4621480068C07AA04263
:1043D00004D01F480068407DA04202D14FF0FF305A
:1043E00070BD1B4840680079A04202DC4FF0FF30EE
:1043F000F6E71749496808782B4601222146FEF75F
:10440000DEFDEDE71CB580208DF80000104A126833
:10441000917C0F4A526810786B460122FEF780FDAE
:1044200010B14FF0FF301CBD6420FCF7C0F8002035
:104430008DF80000064A1268917C054A526810788F
:104440006B460122FEF76CFD20B14FF0FF30EAE72A
:1044500050000020FE4A1268917DFD4A5268107893
:104460006B460622FEF7ABFD10B14FF0FF30DAE7E6
:104470009DF80500C007400F9DF8031001F00101F1
:1044800040EA41009DF8011001F0010140EA0104F9
:1044900074B1012C03D10121ED48C17427E0022C35
:1044A00003D10021EA48C17421E04FF0FF30BAE7A0
:1044B000E74A1268D178E64A526810786B460122C2
:1044C000FEF77DFD10B14FF0FF30ACE79DF8000026
:1044D00000F00F0414B94FF0FF30A4E7042C03D10F
:1044E0000121DB48C17402E00021D948C174FF21D9
:1044F000D7488172FF20D6490872FF21D448417203
:10450000C1724FF6FF71C181FF21017481740121D5
:10451000017380F82210002180F823104175017585
:104520001630016041608160163880F8241080F8F0
:104530002510C1844FF4FA60FFF7EFF910B14FF086
:10454000FF3070E70220FFF7A9F910B14FF0FF30FC
:1045500069E72A20FEF7E6FE10B14FF0FF3062E770
:104560003220FEF7FEFF10B14FF0FF305BE7002076
:10457000FEF717FF10B14FF0FF3054E70020FFF7B0
:104580003CF810B14FF0FF304DE70020FFF71EF967
:10459000002048E77CB504460D46AD48807A10F00F
:1045A000700F02D14FF0FF307CBDA94A1268117B19
:1045B000A74A526810786B460622FEF700FD10B13C
:1045C0004FF0FF30F0E79DF801009DF8001040EA41
:1045D000012000B220809DF803009DF8021040EAFF
:1045E000012000B260809DF805009DF8041040EAAB
:1045F000012000B2A08015B12846FFF7BDFE0020C3
:10460000D2E77CB504460D469148807A10F0080F39
:1046100002D14FF0FF307CBD8D4A1268517B8C4A2D
:10462000526810786B460622FEF7C9FC10B14FF0B5
:10463000FF30F0E79DF801009DF8001040EA0120EE
:1046400000B220809DF803009DF8021040EA01208E
:1046500000B260809DF805009DF8041040EA01203A
:1046600000B2A08015B12846FFF786FE0020D2E7F1
:104670002DE9FE4F05460C467548807A18B94FF073
:10468000FF30BDE8FE8F724A1268917B704A526813
:10469000107802AB0222FEF792FC10B14FF0FF300F
:1046A000EFE79DF809009DF8081040EA012006B2E6
:1046B00014B12046FFF760FE65494968C88802F0DA
:1046C000C1FA634901904968B1F9080002F0A2FA01
:1046D0008346304602F09EFA5946009002F0F8FBFD
:1046E0008246019902F064F981465A4902F0F2F8D3
:1046F00080464FF08F4102F0EDFA074602F04EFA85
:1047000028600020BDE710B588B004461CB94FF002
:10471000FF3008B010BD206828B9606818B9A068DB
:1047200008B90020F5E74A494968087806AB032232
:104730001146FEF744FC10B14FF0FF30E9E79DF859
:104740001800082101EB201000F00F00ADF8000068
:104750009DF8190001EB201000F00F00ADF80200E9
:104760009DF81A0001EB201000F00F00ADF80400D6
:1047700020684100BDF90000403091FBF0F000B22C
:10478000ADF8100060684100BDF90200403091FBB7
:10479000F0F000B2ADF81200A0684100BDF90400CD
:1047A000403091FBF0F000B2ADF8140028494968A0
:1047B000087806AB06221146FEF701FC10B14FF057
:1047C000FF30A6E79DF819009DF8181040EA012077
:1047D00000B2ADF808009DF81B009DF81A1040EAE1
:1047E000012000B2ADF80A009DF81D009DF81C10D4
:1047F00040EA012000B2ADF80C00BDF81000BDF891
:104800000810084400B2ADF81000BDF81200BDF861
:104810000A10084400B2ADF81200BDF81400BDF84B
:104820000C10084400B2ADF81400BDF81000000AE6
:104830008DF81800BDF81000C0B28DF81900BDF851
:104840001200000A8DF81A00BDF81200C0B203E091
:104850005000002000000C428DF81B00BDF8140031
:10486000000A8DF81C00BDF81400C0B28DF81D00C0
:10487000FD494968087806AB06221146FEF750FB51
:1048800010B14FF0FF3044E7002042E7014600201E
:104890000880401E704701464FF0FF3070470146C8
:1048A000F148807A10B10120087001E00020087002
:1048B0000020704738B50446EB48807A10B94FF0B5
:1048C000FF3038BDE84A1268117CE74A5268107818
:1048D0006B460222FEF773FB10B14FF0FF30F0E79A
:1048E0009DF801009DF8001040EA012000B22080F0
:1048F0000020E6E72DE9FE4F0746884692461D4612
:10490000DDF830B000260024D74890F8240010B11C
:10491000601EBDE8FE8F00202870D348807A10B951
:104920004FF0FF30F5E7D048007C10B94FF0FF3072
:10493000EFE7CD48007C10F0400F01D0B01CC6B2AC
:10494000C948007C10F0200F01D0B01CC6B2C64888
:10495000007C10F0100F01D0B01CC6B2C248007C21
:1049600010F0080F01D0B01DC6B2BF4A1268917A8C
:10497000BD4A526810786B460222FEF720FB10B148
:104980004FF0FF30C5E79DF801009DF8001040EAA8
:104990000129B14501DA0020BBE7B34840684088EF
:1049A000B9EB600F17DDB04A1268517CAE4A52680D
:1049B00010786B460122FEF702FB10B14FF0FF307A
:1049C000A7E79DF8000010F0100F04D0FEF784FB5D
:1049D0006FF001009DE75046FFF7CEFCA24A126837
:1049E000D17AA14A526810786B463246FEF7E7FA50
:1049F00010B14FF0FF308CE799FBF6F0401E8BF8BA
:104A0000000000202870B4422AD09748007C10F0A3
:104A1000080F25D0601C1DF800001DF8041040EAA6
:104A2000012000B2A8F80000E01C1DF80010A01C36
:104A30001DF8000041EA002000B2A8F80200601D45
:104A40001DF80010201D1DF8000041EA002000B2F2
:104A5000A8F80400287840F008002870A01D84B24F
:104A6000B44213D08048007C10F0400F0ED0601C80
:104A70001DF800001DF8041040EA012000B2388043
:104A8000287840F040002870A01C84B2B44213D0B3
:104A90007548007C10F0200F0ED0601C1DF800003F
:104AA0001DF8041040EA012000B27880287840F018
:104AB00020002870A01C84B2B44213D06A48007C45
:104AC00010F0100F0ED0601C1DF800001DF804102F
:104AD00040EA012000B2B880287840F01000287029
:104AE000A01C84B2002014E7F8B504460F46164611
:104AF0005D4890F8240010B94FF0FF30F8BD5A48D7
:104B0000807A10B94FF0FF30F8E7574A1268917A6F
:104B1000554A526810786B460222FEF750FA10B1DF
:104B20004FF0FF30EAE79DF801009DF8001040EAE1
:104B30000125A54203DA00203070401EDEE74A4816
:104B400040684088B5EB600F17DD474A1268517C1A
:104B5000454A526810786B460122FEF730FA10B1D0
:104B60004FF0FF30CAE79DF8000010F0100F04D09E
:104B7000FEF7B2FA6FF00100C0E7E2B23A4B1B68F1
:104B8000D97A394B5B6818783B46FEF718FA10B1B2
:104B90004FF0FF30B2E795FBF4F0401E307000207C
:104BA000ACE70146304880F8221000207047F8B585
:104BB00004460D46164616B94FF0FF30F8BD2A4898
:104BC000807A10B94FF0FF30F8E720128DF800001E
:104BD000E0B28DF801009DF801002844224949689F
:104BE0004989884202DD4FF0FF30E7E71E4A12682C
:104BF000117E1D4A526810786B460222FEF790F92A
:104C000010B14FF0FF30D9E7EAB2174B1B68597D5E
:104C1000154B5B6818783346FEF782F910B14FF0F8
:104C2000FF30CBE70020C9E7F8B504460D4616462D
:104C300016B94FF0FF30F8BD0B48807A10B94FF02D
:104C4000FF30F8E720128DF80000E0B28DF8010087
:104C50009DF801002844044949684989884205DDD6
:104C60004FF0FF30E7E7000050000020C34A126811
:104C7000117EC24A526810786B460222FEF750F944
:104C800010B14FF0FF30D6E7EAB2BC4B1B68597D3C
:104C9000BA4B5B6818783346FEF791F910B14FF0C4
:104CA000FF30C8E70020C6E72DE9F04385B0054690
:104CB0000E4690469946B14890F8250020B14FF035
:104CC000FF3005B0BDE8F08316B94FF0FF30F8E7CC
:104CD000002423E0281B102801DD102000E0281B01
:104CE00087B2321939462046FFF761FF10B14FF005
:104CF000FF30E6E701AA39462046FFF795FF10B1DD
:104D00004FF0FF30DDE730193A4601A900F0E4FA30
:104D100010B16FF00100D4E7E01984B2AC42D9DBE6
:104D20004FEA28208DF8000008F0FF008DF8010000
:104D3000924A1268917E914A526810786B4602221C
:104D4000FEF7EEF810B14FF0FF30BAE701218B48C3
:104D500080F82510A0F826900020B2E70146874889
:104D600090F8240008700020704702464FF0FF3092
:104D7000704701464FF0FF307047F8B505460F46C3
:104D80001446002C70D0B5F5FF5F01DDFF2605E06D
:104D9000202D01DA012601E0C5F3471607B90127E6
:104DA000282C02DD4FF0FF30F8BD7448407D28BB51
:104DB000724890F8240038B10020FEF7C2FC0121AF
:104DC0006E4880F8201003E000216C4880F8201025
:104DD0006A481630FFF7A2F968481830FFF77AF9E9
:104DE00066481A30FFF751F964481C30FFF740F964
:104DF0006248817A81771F30FFF734F90020FEF78F
:104E00004CFA0020FEF740FB00208DF800005B4AC2
:104E100012689178594A526810786B460122FEF761
:104E20007FF810B14FF0FF30BEE740208DF8000052
:104E3000524A1268D17B514A526810786B4601225F
:104E4000FEF76EF800B165E08DF800608DF8017036
:104E50004A4A1268117A494A526810786B4602220F
:104E6000FEF75EF808B155E047E00520FBF79FFB31
:104E70004248407A072101EBC000C0B28DF8000023
:104E80003E4A1268D1793D4A526810786B46012239
:104E9000FEF746F800B13DE020208DF80000012C1F
:104EA00003D100208DF801000EE0052C03DC012069
:104EB0008DF8010008E0142C03DC02208DF80100BD
:104EC00002E003208DF801009DF80100072101EBAD
:104ED0008010C0B28DF80100284A1268917C274AE0
:104EE000526810786B460222FEF71AF800B111E002
:104EF000012122484175002056E7204A1632002140
:104F000003E0505C00B105E0491C0C29F9D34FF0D7
:104F1000FF3049E7FF2019490872FF211748417205
:104F2000C1724FF6FF71C181FF21817201740121AD
:104F300001730146887FFEF749FC1049C88AFEF7D5
:104F4000ECFC0E49087EFEF7A9FC0C49488BFEF7E5
:104F5000E9F90A49888BFEF704FB0849C87FFEF788
:104F600020FA064890F8200010B10120FEF7E9FB76
:104F7000002102484175002016E700005000002083
:104F80000CB50020019000906B48006840F4803020
:104F90006949086000BF6848006800F4003000906C
:104FA0000198401C0190009818B90198B0F5A06FC5
:104FB000F1D16148006810F4003F02D00120009058
:104FC00001E0002000900098012842D15B48006871
:104FD00040F01000594908600846006820F00300BE
:104FE00008600846006840F00200086052484068C7
:104FF000514948600846406848600846406840F4A7
:10500000806048600846406820F47C10486008468C
:10501000406840F4E81048600846006840F080703E
:10502000086000BF4448006810F0007FFAD0424892
:10503000406820F00300404948600846406840F05E
:105040000200486000BF3C48406800F00C0008289F
:10505000F9D10CBD10B5FFF793FF10BD10B5364860
:10506000006840F00100344908600846406834494F
:1050700008403149486008460068324908402E49D6
:1050800008600846006820F48020086008464068F0
:1050900020F4FE0048604FF41F008860FFF7DAFF3D
:1050A0004FF000602849086010BD10B500210020B5
:1050B0000022214B5B6803F00C0121B1042906D0CA
:1050C000082928D107E0214B214C236027E01F4B02
:1050D0001F4C236023E0184B5B6803F47010164BE1
:1050E0005B6803F48032022303EB904022B9194B32
:1050F0004343174C23600DE00F4B5B6813F4003FF4
:1051000004D0144B4343124C236003E00F4B434342
:105110000F4C236003E00D4B0D4C236000BF00BF1C
:10512000054B5B68C3F303130B4CE15C084B1B6836
:10513000CB40074C236010BD00100240002002400D
:105140000000FFF8FFFFF6FE08ED00E000127A0015
:105150007C00002000093D0080000020704710B551
:105160004C1084EA530404D54042C1F1000138BF19
:10517000491E1B4204D55242C3F1000338BF5B1ED7
:1051800000F0E2F814F0804F04D04042C1F1000179
:1051900038BF491E14F0004F04D05242C3F100033F
:1051A00038BF5B1E10BD00000FB4044910B503AA40
:1051B000029800F0BDF910BC5DF814FB0800002057
:1051C0002DE9F0410E460446002020622046E168A9
:1051D000884730B3252805D0D4E901219047206ABB
:1051E000401CF2E7E168204600278847050018D0F8
:1051F000A5F14100192802D820354FF40067324646
:10520000294620462760FAF7CDFF40B1012804D097
:10521000F61D26F007060836D8E7361DD6E72846DD
:10522000DAE7206ABDE8F08170B50C460546012A30
:1052300005D02878800600D5EA69002302E0012322
:1052400005E05B1C934202D2E05C0028F9D1A8691A
:10525000E618C01AA861286A184428622846AFF3E5
:10526000008004E0D5E9012114F8010B9047B44215
:10527000F8D32846AFF3008070BD000070B5044637
:105280000D4621461068AFF300802188090502D53C
:10529000104A7A4402E00F4A7A440E32002104F1A7
:1052A000240307E000F00F064FEA1010965D5E54ED
:1052B00001F101010028F5D103462078000704D54B
:1052C000702D02D009B1113202232046BDE8704092
:1052D00000F0BCB896AC000040EA010310B59B0793
:1052E0000FD1042A0DD310C808C9121F9C42F8D050
:1052F00020BA19BA884201D9012010BD4FF0FF3001
:1053000010BD1AB1D30703D0521C07E0002010BD16
:1053100010F8013B11F8014B1B1B07D110F8013BA2
:1053200011F8014B1B1B01D1921EF1D1184610BD83
:1053300002F0FF0343EA032242EA024200F00CB902
:10534000704770477047704753EA020C00F069805D
:105350002DE9F04B4FF00006002B1FBFB3FA83F589
:1053600003FA05F424FA05F65E4012BF1643B2FABA
:1053700082F502FA05F4C5F120051EBF22FA05FCEC
:1053800044EA0C04203556EA044C4FEA144418BF92
:10539000641C4FF000084FF00009904271EB030CC1
:1053A00039D3002919BFB1FA81F701FA07F6B0FA2B
:1053B00080F700FA07F6C7F120071EBF20FA07FCA6
:1053C00046EA0C062037B6FBF4FCA7EB0507103FB6
:1053D00007F01F0BCBF120060CFA0BFB2CFA06F69C
:1053E00044BFB3460026202FA4BF5E464FF0000BFB
:1053F0005BEA060C08BF4FF0010B19EB0B09ABFB86
:10540000027C48EB0608C01B06FB02CC0BFB03CC5E
:1054100071EB0C01C1E70B46024641464846BDE828
:10542000F08B13B54FF000004FF00001AFF3008098
:10543000BDE81C40704710B500F0AEF8006810BD24
:1054400010B5044600F0A8F8046010BD2DE9F0473F
:105450000D4699469246044600F1240801688806E4
:1054600004D5E06921F01001216000E00120A8428C
:1054700002DDA0EB050700E00027A16907EB0502AC
:1054800002EB0900A1EB0000A0612078C00602D465
:105490002046AFF30080002608E0D4E901211AF885
:1054A00006009047206A401C761C20624E45F4DBC3
:1054B0002078C0060AD52046AFF3008006E0D4E984
:1054C000012130209047206A401C2062381EA7F13D
:1054D0000107F4DC07E0D4E9012118F80500904742
:1054E000206A401C2062281EA5F10105F3DC20463D
:1054F000AFF300802078000602D50220BDE8F087D7
:105500000120FBE710B5436913B1AFF3008001E060
:10551000FFF78AFE012010BD127800F124010A7005
:1055200000224A700122EDE711684FF0FF32E9E7EF
:10553000074B70B50D467B4400F037F8044628460B
:1055400000F046F810B14FF0FF3070BD204670BD3E
:1055500089B2FFFF4FF000020429C0F0128010F062
:10556000030C00F03B80CCF1040CBCF1020F18BF1F
:1055700000F8012BA8BF20F8022BA1EB0C0100F0D2
:105580002DB85FEAC17C24BF00F8012B00F8012B85
:1055900048BF00F8012B704700487047F00000201A
:1055A00001694A1C02610878704700B58FB0CDE9E7
:1055B00001310021059105497944CDE903101146D7
:1055C0006846FFF7FDFD0FB000BD0000E5FFFFFFDF
:1055D000007B00F0800070474FF0000200B51346DA
:1055E00094469646203922BFA0E80C50A0E80C5003
:1055F000B1F12001BFF4F7AF090728BFA0E80C50B4
:1056000048BF0CC05DF804EB890028BF40F8042BAC
:1056100008BF704748BF20F8022B11F0804F18BF19
:1056200000F8012B7047000000487047F000002090
:105630007546FFF7F9FFAE4605006946534620F070
:105640000700854618B020B5FAF7FEFEBDE82040F9
:105650004FF000064FF000074FF000084FF0000B2E
:1056600021F00701AC46ACE8C009ACE8C009ACE8E1
:10567000C009ACE8C0098D4670470446AFF300800E
:105680002046FAF7A4FD490050EAC12018BF0420C3
:105690004A0D18BF40F0010040F2FF72B2EB515FBB
:1056A00008BF40F00200012808BF052070472DE91F
:1056B000F0414F1E00EBC7010446D1E90001154639
:1056C0001E4637F006020DD02A46334600F0FCFD98
:1056D0007F1E04EBC703D3E9002300F0ADFB37F0D6
:1056E0000602F1D1022F25D0042F13D0062F18BFA8
:1056F000BDE8F0812A46334600F0E6FDD4E90A23EE
:1057000000F09AFB2A46334600F0DEFDD4E9082378
:1057100000F092FB2A46334600F0D6FDD4E906237A
:1057200000F08AFB2A46334600F0CEFDD4E904237C
:1057300000F082FB2A46334600F0C6FDD4E902237E
:1057400000F07AFB2A46334600F0BEFDD4E9002380
:10575000BDE8F04100F070BB024A0020110701F0E3
:105760005EBC000001FDFFFF2DE9F04D904F21F0E0
:10577000004A86B005460C46BA4530DBAAEB070066
:1057800028430CD08B48824501DC1CD1DDB106B02A
:105790002846BDE8F04D4FF0010201F040BC864ABA
:1057A000864B284600F090FD07460E46844A854BFE
:1057B0002846214600F088FD06B03A463346BDE84B
:1057C000F04D00F039BB0120FFF73AFE06B0002291
:1057D000BDE8F04D13461046114600F0DDBB7A4897
:1057E000824542DABAF1795F0BDA2846FFF74BFFC0
:1057F000042808BFFFF7B0FF284606B02146BDE8E1
:10580000F08D2A460B46104600F05EFD83460246A8
:105810006E480E460B4606217844FFF748FF5A466D
:10582000334600F051FD804669488A465A46334661
:1058300004217844FFF73BFF5A46334600F044FD0D
:1058400000223B4600F0F8FA02460B46404651461D
:1058500000F0A2FB2A46234600F036FD06B02A4699
:105860002346BDE8F04D00F0E7BA284624F0004199
:1058700000223D463B4600F025FE4FF0FF3201F08E
:10588000CEFB0646024653480F460B460621784497
:10589000FFF70DFF32463B4600F016FDCDE9000153
:1058A0004D4832463B4604217844FFF700FF32461C
:1058B0003B4600F009FD00222B4600F0BDFA83466E
:1058C00002913046394600F05FFA804643480D4663
:1058D000504517DCDDE900015A46029B00F05CFBF5
:1058E00042462B4600F0F0FC42462B4600F0A4FA5C
:1058F000012201F094FB304A304B00F0D5FE304AD3
:10590000304B4CE04FF0000A52460B46404600F048
:1059100093FACDE9031052462B461046194600F083
:10592000D3FC32463B4600F0CDFDDDE9033200F00A
:1059300033FB06460F46DDE900015A46029B00F0A4
:105940002BFB8346009101223046394601F067FB6C
:10595000194A1A4B00F0B6FD06460F460122404692
:10596000294601F05CFB5A46009B00F0ADFC324634
:105970003B4600F099FE07460E4601225046294656
:1059800001F04DFB0E4DDFF858802A46434600F0EB
:1059900099FD3A46334600F095FD2A46434600F00D
:1059A00091FD002CD8BF81F0004106B0BDE8F08D1C
:1059B0000000F03F0000F07F075C143326A6913C06
:1059C000182D4454FB21F93F0000E03F3CA70000A4
:1059D00052A70000C6A60000DCA600003333EF3F4C
:1059E000FB21E93F2DE9F84F04460D4621F0004028
:1059F00000917449814213DC7349884201DC08D16B
:105A00003CB120462946BDE8F84F4FF0010201F0B5
:105A100006BB6E48002DCCBF6D496E49BDE8F88FBE
:105A20006D49814211DD6D498142D8BF4FF0FF368B
:105A30006DDD20462946FFF726FE042808BFFFF744
:105A40008BFE20462946BDE8F88F6549654F25F055
:105A50000045814233DD6449814219DD002632462A
:105A60004FF080432046294600F0E6F980468A46FA
:105A700001222046294601F0D2FA00223B4600F0DE
:105A800013FE4246534600F087FA04460D463EE0B8
:105A900001260022BA463B462046294600F0CCF9B2
:105AA00080460F46002253462046294600F0FCFD62
:105AB00042463B4600F070FA04460D4627E04B494B
:105AC00081421BDDDFF82881022600224346204662
:105AD000294600F0F9FB00223B4600F0ADF90746ED
