:020000040800F2
:1000000080060020DD010008E5010008E701000886
:10001000E9010008EB010008ED0100080000000004
:10002000000000000000000000000000EF010008D8
:10003000F101000800000000F3010008F5010008CC
:10004000F7010008F7010008F7010008F7010008B0
:10005000F7010008F7010008F7010008F7010008A0
:10006000F7010008F7010008F7010008F701000890
:10007000F7010008F7010008F7010008F701000880
:10008000F7010008F7010008F7010008F701000870
:10009000F7010008F7010008F7010008F701000860
:1000A000F7010008F7010008F7010008F701000850
:1000B000F7010008F7010008F7010008F701000840
:1000C000F7010008F7010008F7010008F701000830
:1000D000F7010008F7010008F7010008F701000820
:1000E000F7010008F7010008F7010008F701000810
:1000F000F7010008F7010008F7010008F701000800
:10010000F7010008F7010008F7010008F7010008EF
:10011000F7010008F7010008F7010008F7010008DF
:10012000F7010008F7010008F7010008F7010008CF
:1001300000F002F800F03AF80AA090E8000C8244BF
:100140008344AAF10107DA4501D100F02FF8AFF29C
:10015000090EBAE80F0013F0010F18BFFB1A43F0A5
:1001600001031847B4070000D4070000103A24BF69
:1001700078C878C1FAD8520724BF30C830C144BF0C
:1001800004680C607047000000230024002500264E
:10019000103A28BF78C1FBD8520728BF30C148BFEA
:1001A0000B6070471FB51FBD10B510BD00F051FAB0
:1001B0001146FFF7F7FF00F008F800F06FFA03B4FC
:1001C000FFF7F2FF03BC00F073FA00F02DF84820AF
:1001D00000F0D4F801E000F045F8FCE7094880475A
:1001E00009480047FEE7FEE7FEE7FEE7FEE7FEE719
:1001F000FEE7FEE7FEE7FEE704480549054A064B31
:10020000704700004D050008310100088000002003
:100210008006002080020020800200205549C96825
:100220000143544AD160704700B55348806940F09B
:100230001000514988614F4800686FF30B004D4929
:1002400008600846006840F23331084349490860B5
:100250000720FFF7E3FF00BD4649C9688143454ACF
:10026000D160704770B50025002400BF7EE00124F6
:100270000FE00120FFF7F0FF204600F091F8012089
:10028000FFF7CCFF40F2E931081B00F089F8601C51
:1002900084B2B4F57A7FECDB4FF4FA7000F09FF88B
:1002A00001240FE00620FFF7D7FF204600F078F882
:1002B0000620FFF7B3FF40F2E931081B00F070F8A9
:1002C000601C84B2B4F57A7FECDB4FF4FA7000F076
:1002D00086F801240FE00320FFF7BEFF204600F060
:1002E0005FF80320FFF79AFF40F2E931081B00F0A6
:1002F00057F8601C84B2B4F57A7FECDB4FF4FA70E7
:1003000000F06DF801240FE00420FFF7A5FF204660
:1003100000F046F80420FFF781FF40F2E931081BA6
:1003200000F03EF8601C84B2B4F57A7FECDB4FF449
:10033000FA7000F054F801240FE00220FFF78CFF60
:10034000204600F02DF80220FFF768FF40F2E93167
:10035000081B00F025F8601C84B2B4F57A7FECDB52
:100360004FF4FA7000F03BF8681C85B2C82DFFF618
:100370007EAF70BD001001400010024000214FF020
:10038000E0221161C21700EB5272D210354B1A6095
:10039000194609684FF47A725143334A1160704725
:1003A000304A126842434FF0E0235A6100229A61BA
:1003B0001A46126942F001021A611A46116900BF19
:1003C00011F0010F02D011F4803FF9D04FF0E0227C
:1003D000126922F001024FF0E0231A6170470146D2
:1003E000214A12684A434FF0E0235A6100229A6181
:1003F0001A46126942F001021A6100BF4FF0E02272
:10040000106910F0010F02D010F4803FF6D04FF0C9
:10041000E022126922F001024FF0E0231A617047D6
:100420002DE9F04105460E464FF000020F4B2846DD
:10043000314600F073F9074600F042F9044600BF68
:10044000B4F57A7F06D94FF47A70FFF7C8FFA4F5A8
:100450007A7403E02046FFF7C2FF0024002CEFD19E
:10046000BDE8F081040000200000002000408F4023
:100470000CB50020019000906B48006840F480307B
:100480006949086000BF6848006800F400300090C7
:100490000198401C0190009818B90198B0F5A06F20
:1004A000F1D16148006810F4003F02D001200090B3
:1004B00001E0002000900098012842D15B480068CC
:1004C00040F01000594908600846006820F0030019
:1004D00008600846006840F0020008605248406822
:1004E000514948600846406848600846406840F402
:1004F000806048600846406820F47C1048600846E8
:10050000406840F4E81048600846006840F0807099
:10051000086000BF4448006810F0007FFAD04248ED
:10052000406820F00300404948600846406840F0B9
:100530000200486000BF3C48406800F00C000828FA
:10054000F9D10CBD10B5FFF793FF10BD10B53648BB
:10055000006840F0010034490860084640683449AA
:1005600008403149486008460068324908402E4931
:1005700008600846006820F480200860084640684B
:1005800020F4FE0048604FF41F008860FFF7DAFF98
:100590004FF000602849086010BD10B50021002010
:1005A0000022214B5B6803F00C0121B1042906D025
:1005B000082928D107E0214B214C236027E01F4B5D
:1005C0001F4C236023E0184B5B6803F47010164B3C
:1005D0005B6803F48032022303EB904022B9194B8D
:1005E0004343174C23600DE00F4B5B6813F4003F4F
:1005F00004D0144B4343124C236003E00F4B43439E
:100600000F4C236003E00D4B0D4C236000BF00BF77
:10061000054B5B68C3F303130B4CE15C084B1B6891
:10062000CB40074C236010BD001002400020024068
:100630000000FFF8FFFFF6FE08ED00E000127A0070
:100640000800002000093D000C00002070477047A2
:100650007047754600F028F8AE46050069465346D7
:1006600020F00700854618B020B5FFF7C5FDBDE8AE
:1006700020404FF000064FF000074FF000084FF009
:10068000000B21F00701AC46ACE8C009ACE8C0099A
:10069000ACE8C009ACE8C0098D4670470446AFF32A
:1006A00000802046FFF78BFD004870471C000020AB
:1006B00001491820ABBEFEE726000200704700008B
:1006C0004FEA1153A3F58063D3F11E03A8BFD3F102
:1006D000200C08DB4FF0004242EAC12252EA50529D
:1006E00032FA03F0704709420BD4102BC4BF00202C
:1006F000704703F5787CBCF1FF3F05D04FF0FF3029
:1007000070474FF00000704770B500F0B1F800BFBF
:100710004992248000207047F0E70000DFF848C1CC
:1007200070B51CEA111E1EBF1CEA13159EEA0C0FC1
:1007300095EA0C0F00F06F8081EA030423EA4C1362
:100740004EEAD47E21EA4C1141F4801143F4801327
:10075000AE44A1FB024CA0FB0365AEF17F7E3619CF
:1007600055EB0C05A1FB034C4CF10003A0FB021C54
:1007700016EB0C06654153F10003094218BF46F021
:10078000010613F4007F0BD14FEA03314FEA053025
:10079000340341EA155140EA16506FF003020AE0B3
:1007A0004FEAC3214FEAC520F40241EA555140EA1D
:1007B00056506FF0020202EB2E4201EB025585EA21
:1007C000CE710AD05FEA440C18BF24F0004450F107
:1007D000000041F1000120EAD47040F2FE7C624545
:1007E00000D270BDA84214BF4FF080444FF0404487
:1007F000002E08BF0024BEF1806FA8BFA1F1C04148
:10080000BDE8704080F282804FF0000001F1C041ED
:1008100001F0004170479EEA0C0F0CEA131518BF57
:1008200095EA0C0F06D04FF0000081EA030E0EF09F
:10083000004170BD00F01CF88900013E00F007B8CF
:1008400000F009B84FEA430C5FEA5C5C08D081EA2B
:10085000030100F05BB84FEA410C5FEA5C5CF6D143
:100860004FF00000014970470000FF070000F87FCB
:100870000EF1020E2EF0030E5EF8046B364205D424
:10088000012A43EB030515F5001F12D8012841EB9F
:10089000010C1CF5001F0CD80ED14FEAD17C15F5C8
:1008A000001F0CEB4C0C0CF1020C08BF4CEBD37C82
:1008B00004E04FF0080C01E04FEAD37C0CEB4C0550
:1008C00026FA05F606F00706B6F1040C06D20EEB82
:1008D000860CBDE870404CF0010C6047DFE80CF07E
:1008E000090B02024FF000414FF00000A1F500217A
:1008F00070BD19461046012851EB010418BFD4F50C
:10090000001484BF002001F0004170BD0808A0F56C
:1009100000114FEA3101704738090008000000203B
:100920001C0000006C010008540900081C00002095
:1009300064060000880100080000000000000000BC
:1009400000A24A04000000000000000001020304AD
:040950000607080985
:0400000508000131BD
:00000001FF
